:0400000002008E323A
:03000B000202AB43
:0100130032BA
:03001B00020300DD
:200020000000E2FBEAF2802C0000E0FBEAF08024E6B50202EBF62200E2B50202EBF22200C6
:20004000E0B50202EBF02230F6E0A88220F5D3EAC6F582228B822230F6E6A88220F5D980D6
:01006000CFD0
:1800E700750F00751000751100751200750800750D00750E0002006106
:030061000203CEC9
:2000FF00E50D60047F648004AE0E8E07C374239FE43324FF92B3C3741F9FE43324FF92B2E8
:20011F00C3741B9FE43324FF92B1C374179FE43324FF92B0C374139FE43324FF92A0C3745D
:20013F000F9FE43324FF92A1C3740B9FE43324FF92A2C374079FE43324FF92A3C374039F11
:20015F00E43324FF92A42274F6250D400E749C250E4008E50D7008E50E70047F0180027F27
:20017F0000E50F600F7401B50F0280267402B50F02804B22C2B4EF60047EAF800EAD0E753F
:20019F00F00AED84E5F09005CC93FE8E90D2B6050F22C2B6EF60047EAF801CE50D700674C2
:2001BF00F6250E500EAD0E75F00AED849005CC93FD80027DFF8D068E90D2B5050F22C2B52A
:2001DF00EF60047F868011E50D6009E50D9005CC93FE80027EFF8E078F90D2B4750F0022F9
:2001FF0085821385831490001912049EAE82AF838E138F1475150075160090875FE4F5F053
:20021F001204BB7513A0751486751501751600120576AC82AD8375130A751400C005C00412
:20023F00120410AE82AF83D004D0057513647514008E828F83C007C006C005C0041204109B
:20025F00AA82D004D005D006D0078A0D7513647514008E828F83C005C004120529AE82D006
:20027F0004D00575130A7514008C828D83C006120529AD82AF83D006C3ED9405EF94004004
:20029F00047F0180027F00EF2EF50E22C0E0C0D030A71D7401250BF50BE4350CF50CC37452
:2002BF00F4950B7401950C50337508FFC28C802CC3E50B9402E50C94004007750801C28C9B
:2002DF00801A74012509F509E4350AF50AC374759509E4950A50057508FFC28CD0D0D0E066
:2002FF0032C020C0E0C0F0C082C083C007C006C005C004C003C002C001C000C0D075D00007
:20031F00C374808508F063F08095F05014850B82850C831201FF1200FF7511007508008002
:20033F0016E50830E7110511E51124FC5006750D0A1200FF7508001201660510E50D702DBA
:20035F00E50E24FF5027E50E24DC4021E510C39512FFE50E75F005A4FEC39F5007C2A5859B
:20037F001012800BBF02004006D2A58002D2A5E510543F701B208C1820A715D2A6E4F50B2B
:20039F00F50CF509F50AD28CE509450A60FAC2A6D0D0D000D001D002D003D004D005D0067E
:2003BF00D007D083D082D0F0D0E0D02002006475B0FF75A0FF7590FF7580FFC2A67593FF3D
:2003DF007594007591FF7592FF75951F75967F75B18F75B27F75A88A75B802758902758C05
:1103FF00CE758AF5758DEC758B78D28E75870180FBED
:0A05CC00C0F9A4B0999283F880985A
:200410007A10E4FBFCE58225E0F582E58333F583EB33FBEC33FCEB9513F5F0EC95144006EA
:09043000FCABF0438201DADD228D
:20043900FB7A20E4FCFDFEFFE5822582F582E58333F583E5F033F5F0EB33FB4017DAE980FC
:2004590042E5822582F582E58333F583E5F033F5F0EB33FBEC33FCED33FDEE33FEEF33FF2B
:20047900EC9513ED9514EE9515EF95164013EC9513FCED9514FDEE9515FEEF9516FF43829D
:0504990001DABEEB22B8
:0600BD00E478FFF6D8FD17
:20009B007900E94400601B7A009005D6780175A000E493F2A308B8000205A0D9F4DAF27530
:0200BB00A0FFA4
:20006400C000A88118C0D0B6001B18B620004015B647005010C0E0E65407B406005004E6A5
:0A00840054F8F6D0E0D0D0D00032DE
:1D049E00E5828513F0A4C582C0F08514F0A4D0F025F0C5838513F0A42583F58322FF
:2004BB00AAF0FBE5828513F0A4FCADF0E5838513F0A42DFDE435F0FEE5828514F0A42DFDDD
:2004DB00E5F03EFEE433FFEA8513F0A42EFEE5F03FFFE5838514F0A42EFEE5F03FFFE5824A
:2004FB008515F0A42EFEE5F03FFFEB8513F0A42FFFEA8514F0A42FFFE5838515F0A42FFF26
:0E051B00E5828516F0A42F8EF08D838C82224F
:20052900E513451460467A01E51325E0F513E514334012F514E5829513E583951440030A47
:2005490080E6C3E51413F514E51313F513C3E5829513F5F0E58395144005F58385F082C302
:0D056900E51413F514E51313F513DAE12280
:2000C3007800E84400600A790175A000E4F309D8FC7800E84400600C7900900001E4F0A33B
:0400E300D8FCD9FA72
:20057600FBC2D530E715D2D5E4C39582F582E49583F583E495F0F5F0E49BFBE51630E71766
:20059600B2D5E4C39513F513E49514F514E49515F515E49516F516EB12043930D513FBE46E
:1205B600C39582F582E49583F583E495F0F5F0E49B227F
:0D008E007581201205C8E582600302006143
:0405C8007582002216
:00000001FF
