:040000000200643264
:03000B0002029955
:0100130032BA
:03001B000202EFEF
:200020000000E2FBEAF2802C0000E0FBEAF08024E6B50202EBF62200E2B50202EBF22200C6
:20004000E0B50202EBF02230F6E0A88220F5D3EAC6F582228B822230F6E6A88220F5D980D6
:01006000CFD0
:1A00BD00750F00C202751000751100751200750800750D00750E000200616A
:030061000203BADD
:2000D700E50D60047F638004AE0E8E07EF24DC9200E43324FF92B3EF24E09200E43324FF3D
:2000F70092B2EF24E49200E43324FF92B1EF24E89200E43324FF92B0EF24EC9200E43324CA
:20011700FF92A0EF24F09200E43324FF92A1EF24F49200E43324FF92A2EF24F89200E433DA
:2001370024FF92A3EF24FC9200E43324FF92A422E50D24F64012E50E249C400CE50D70045A
:20015700E50E6004C2018002D201E50F600F7401B50F0280267402B50F02804B22C2B43006
:2001770001047FAF800EAE0E75F00AEE84E5F09005B593FF8F90D2B6050F22C2B6300104CF
:200197007FAF801CE50D700674F6250E500EAE0E75F00AEE849005B593FE80027EFF8E070F
:2001B7008F90D2B5050F22C2B53001047F868011E50D6009E50D9005B593FE80027EFF8E55
:2001D700078F90D2B4750F0022858213858314900005120487AE82AF838E138F147515001E
:2001F70075160090875FE4F5F01204A47513A075148675150175160012055FAC82AD8375CE
:20021700130A751400C005C0041203F9AE82AF83D004D00575130A7514008C828D83C0077F
:20023700C006120512AC82AD83D006D007C3EC9404ED940050047B008013C374059CE49D2A
:2002570050047D018005A202E433FD8D03EB24FF92027513647514008E828F83C007C00622
:200277001203F9AC82D006D0078C0D7513647514008E828F83120512AE82A202E4332EF517
:200297000E22C0E0C0D030A71D7401250BF50BE4350CF50CC3E50B94C4E50C9409403475A6
:2002B70008FFC28C802DC3E50B940CE50C94004007750801C28C801B74012509F509E435E5
:2002D7000AF50AC3E5099445E50A940240057508FFC28CD0D0D0E032C021C0E0C0F0C082EB
:2002F700C083C007C006C005C004C003C002C001C000C0D075D000C374808508F063F080AC
:2003170095F05014850B82850C831201E01200D77511007508008016E50830E7110511E532
:200337001124FC5006750D0A1200D77508001201470510E50D702CE50E24FF5026E50E248D
:20035700DC4020E510C39512FFE50E75F005A4C39F5007C2A5851012800BBF02004006D2C0
:20037700A58002D2A5E510543F701B208C1820A715D2A6E4F50BF50CF509F50AD28CE5096F
:20039700450A60FAC2A6D0D0D000D001D002D003D004D005D006D007D083D082D0F0D0E0E4
:2003B700D0213275B0FF75A0FF7590FF7580FFC2A67593FF7594007591FF7592FF75951F27
:2003D70075967F75B18F75B27F75A88A75B802758902758CF6758DEC758B78D28E75870191
:0203F70080FB89
:0A05B500C0F9A4B0999283F8809871
:2003F9007A10E4FBFCE58225E0F582E58333F583EB33FBEC33FCEB9513F5F0EC9514400602
:09041900FCABF0438201DADD22A4
:20042200FB7A20E4FCFDFEFFE5822582F582E58333F583E5F033F5F0EB33FB4017DAE98013
:2004420042E5822582F582E58333F583E5F033F5F0EB33FBEC33FCED33FDEE33FEEF33FF42
:20046200EC9513ED9514EE9515EF95164013EC9513FCED9514FDEE9515FEEF9516FF4382B4
:0504820001DABEEB22CF
:06009300E478FFF6D8FD41
:200071007900E94400601B7A009005BF780175A000E493F2A308B8000205A0D9F4DAF27571
:02009100A0FFCE
:1D048700E5828513F0A4C582C0F08514F0A4D0F025F0C5838513F0A42583F5832216
:2004A400AAF0FBE5828513F0A4FCADF0E5838513F0A42DFDE435F0FEE5828514F0A42DFDF4
:2004C400E5F03EFEE433FFEA8513F0A42EFEE5F03FFFE5838514F0A42EFEE5F03FFFE58261
:2004E4008515F0A42EFEE5F03FFFEB8513F0A42FFFEA8514F0A42FFFE5838515F0A42FFF3D
:0E050400E5828516F0A42F8EF08D838C822266
:20051200E513451460467A01E51325E0F513E514334012F514E5829513E583951440030A5E
:2005320080E6C3E51413F514E51313F513C3E5829513F5F0E58395144005F58385F082C319
:0D055200E51413F514E51313F513DAE12297
:200099007800E84400600A790175A000E4F309D8FC7800E84400600C7900900001E4F0A365
:0400B900D8FCD9FA9C
:20055F00FBC2D530E715D2D5E4C39582F582E49583F583E495F0F5F0E49BFBE51630E7177D
:20057F00B2D5E4C39513F513E49514F514E49515F515E49516F516EB12042230D513FBE49C
:12059F00C39582F582E49583F583E495F0F5F0E49B2296
:0D0064007581211205B1E582600302006183
:0405B100758200222D
:00000001FF
